{
  "contractName": "EnergyTrading",
  "abi": [
    {
      "anonymous": false,
      "inputs": [
        {
          "indexed": false,
          "internalType": "address",
          "name": "buyer",
          "type": "address"
        },
        {
          "indexed": false,
          "internalType": "uint256",
          "name": "amount",
          "type": "uint256"
        }
      ],
      "name": "EnergyBought",
      "type": "event"
    },
    {
      "anonymous": false,
      "inputs": [
        {
          "indexed": false,
          "internalType": "address",
          "name": "seller",
          "type": "address"
        },
        {
          "indexed": false,
          "internalType": "uint256",
          "name": "amount",
          "type": "uint256"
        }
      ],
      "name": "EnergySold",
      "type": "event"
    },
    {
      "anonymous": false,
      "inputs": [
        {
          "indexed": false,
          "internalType": "address",
          "name": "user",
          "type": "address"
        },
        {
          "indexed": false,
          "internalType": "string",
          "name": "name",
          "type": "string"
        }
      ],
      "name": "UserRegistered",
      "type": "event"
    },
    {
      "inputs": [
        {
          "internalType": "address",
          "name": "",
          "type": "address"
        }
      ],
      "name": "users",
      "outputs": [
        {
          "internalType": "string",
          "name": "name",
          "type": "string"
        },
        {
          "internalType": "uint256",
          "name": "tokens",
          "type": "uint256"
        },
        {
          "internalType": "bool",
          "name": "isRegistered",
          "type": "bool"
        }
      ],
      "stateMutability": "view",
      "type": "function"
    },
    {
      "inputs": [
        {
          "internalType": "string",
          "name": "_name",
          "type": "string"
        }
      ],
      "name": "registerUser",
      "outputs": [],
      "stateMutability": "nonpayable",
      "type": "function"
    },
    {
      "inputs": [
        {
          "internalType": "uint256",
          "name": "_amount",
          "type": "uint256"
        }
      ],
      "name": "buyEnergy",
      "outputs": [],
      "stateMutability": "nonpayable",
      "type": "function"
    },
    {
      "inputs": [
        {
          "internalType": "uint256",
          "name": "_amount",
          "type": "uint256"
        }
      ],
      "name": "sellEnergy",
      "outputs": [],
      "stateMutability": "nonpayable",
      "type": "function"
    },
    {
      "inputs": [
        {
          "internalType": "address",
          "name": "_user",
          "type": "address"
        }
      ],
      "name": "getUserDetails",
      "outputs": [
        {
          "internalType": "string",
          "name": "",
          "type": "string"
        },
        {
          "internalType": "uint256",
          "name": "",
          "type": "uint256"
        }
      ],
      "stateMutability": "view",
      "type": "function"
    }
  ],
  "bytecode": "0x608060405234801561000f575f80fd5b506110348061001d5f395ff3fe608060405234801561000f575f80fd5b5060043610610055575f3560e01c80634326ee3614610059578063704f1b9414610075578063a87430ba14610091578063bc8a251f146100c3578063cc3d967b146100df575b5f80fd5b610073600480360381019061006e91906107c6565b610110565b005b61008f600480360381019061008a919061092d565b61022c565b005b6100ab60048036038101906100a691906109ce565b61038f565b6040516100ba93929190610a9c565b60405180910390f35b6100dd60048036038101906100d891906107c6565b610446565b005b6100f960048036038101906100f491906109ce565b6105e4565b604051610107929190610ad8565b60405180910390f35b5f803373ffffffffffffffffffffffffffffffffffffffff1673ffffffffffffffffffffffffffffffffffffffff1681526020019081526020015f206002015f9054906101000a900460ff1661019b576040517f08c379a000000000000000000000000000000000000000000000000000000000815260040161019290610b50565b60405180910390fd5b805f803373ffffffffffffffffffffffffffffffffffffffff1673ffffffffffffffffffffffffffffffffffffffff1681526020019081526020015f206001015f8282546101e99190610b9b565b925050819055507f9fb339e191de31f84b67063370f6fdf06b0cb3b95c663b3c1910deb6e15b5f7c3382604051610221929190610bdd565b60405180910390a150565b5f803373ffffffffffffffffffffffffffffffffffffffff1673ffffffffffffffffffffffffffffffffffffffff1681526020019081526020015f206002015f9054906101000a900460ff16156102b8576040517f08c379a00000000000000000000000000000000000000000000000000000000081526004016102af90610c4e565b60405180910390fd5b604051806060016040528082815260200160648152602001600115158152505f803373ffffffffffffffffffffffffffffffffffffffff1673ffffffffffffffffffffffffffffffffffffffff1681526020019081526020015f205f820151815f0190816103269190610e66565b50602082015181600101556040820151816002015f6101000a81548160ff0219169083151502179055509050507f48cac28ad4dc618e15f4c2dd5e97751182f166de97b25618318b2112aa951a2f3382604051610384929190610f35565b60405180910390a150565b5f602052805f5260405f205f91509050805f0180546103ad90610c99565b80601f01602080910402602001604051908101604052809291908181526020018280546103d990610c99565b80156104245780601f106103fb57610100808354040283529160200191610424565b820191905f5260205f20905b81548152906001019060200180831161040757829003601f168201915b505050505090806001015490806002015f9054906101000a900460ff16905083565b5f803373ffffffffffffffffffffffffffffffffffffffff1673ffffffffffffffffffffffffffffffffffffffff1681526020019081526020015f206002015f9054906101000a900460ff166104d1576040517f08c379a00000000000000000000000000000000000000000000000000000000081526004016104c890610b50565b60405180910390fd5b805f803373ffffffffffffffffffffffffffffffffffffffff1673ffffffffffffffffffffffffffffffffffffffff1681526020019081526020015f20600101541015610553576040517f08c379a000000000000000000000000000000000000000000000000000000000815260040161054a90610fad565b60405180910390fd5b805f803373ffffffffffffffffffffffffffffffffffffffff1673ffffffffffffffffffffffffffffffffffffffff1681526020019081526020015f206001015f8282546105a19190610fcb565b925050819055507f473096e2da977596760b23740a6dc43e2eb265c5f04c241a147c377d5c543beb33826040516105d9929190610bdd565b60405180910390a150565b60605f805f8473ffffffffffffffffffffffffffffffffffffffff1673ffffffffffffffffffffffffffffffffffffffff1681526020019081526020015f206002015f9054906101000a900460ff16610672576040517f08c379a000000000000000000000000000000000000000000000000000000000815260040161066990610b50565b60405180910390fd5b5f805f8573ffffffffffffffffffffffffffffffffffffffff1673ffffffffffffffffffffffffffffffffffffffff1681526020019081526020015f206040518060600160405290815f820180546106c990610c99565b80601f01602080910402602001604051908101604052809291908181526020018280546106f590610c99565b80156107405780601f1061071757610100808354040283529160200191610740565b820191905f5260205f20905b81548152906001019060200180831161072357829003601f168201915b5050505050815260200160018201548152602001600282015f9054906101000a900460ff1615151515815250509050805f015181602001519250925050915091565b5f604051905090565b5f80fd5b5f80fd5b5f819050919050565b6107a581610793565b81146107af575f80fd5b50565b5f813590506107c08161079c565b92915050565b5f602082840312156107db576107da61078b565b5b5f6107e8848285016107b2565b91505092915050565b5f80fd5b5f80fd5b5f601f19601f8301169050919050565b7f4e487b71000000000000000000000000000000000000000000000000000000005f52604160045260245ffd5b61083f826107f9565b810181811067ffffffffffffffff8211171561085e5761085d610809565b5b80604052505050565b5f610870610782565b905061087c8282610836565b919050565b5f67ffffffffffffffff82111561089b5761089a610809565b5b6108a4826107f9565b9050602081019050919050565b828183375f83830152505050565b5f6108d16108cc84610881565b610867565b9050828152602081018484840111156108ed576108ec6107f5565b5b6108f88482856108b1565b509392505050565b5f82601f830112610914576109136107f1565b5b81356109248482602086016108bf565b91505092915050565b5f602082840312156109425761094161078b565b5b5f82013567ffffffffffffffff81111561095f5761095e61078f565b5b61096b84828501610900565b91505092915050565b5f73ffffffffffffffffffffffffffffffffffffffff82169050919050565b5f61099d82610974565b9050919050565b6109ad81610993565b81146109b7575f80fd5b50565b5f813590506109c8816109a4565b92915050565b5f602082840312156109e3576109e261078b565b5b5f6109f0848285016109ba565b91505092915050565b5f81519050919050565b5f82825260208201905092915050565b5f5b83811015610a30578082015181840152602081019050610a15565b5f8484015250505050565b5f610a45826109f9565b610a4f8185610a03565b9350610a5f818560208601610a13565b610a68816107f9565b840191505092915050565b610a7c81610793565b82525050565b5f8115159050919050565b610a9681610a82565b82525050565b5f6060820190508181035f830152610ab48186610a3b565b9050610ac36020830185610a73565b610ad06040830184610a8d565b949350505050565b5f6040820190508181035f830152610af08185610a3b565b9050610aff6020830184610a73565b9392505050565b7f55736572206e6f742072656769737465726564000000000000000000000000005f82015250565b5f610b3a601383610a03565b9150610b4582610b06565b602082019050919050565b5f6020820190508181035f830152610b6781610b2e565b9050919050565b7f4e487b71000000000000000000000000000000000000000000000000000000005f52601160045260245ffd5b5f610ba582610793565b9150610bb083610793565b9250828201905080821115610bc857610bc7610b6e565b5b92915050565b610bd781610993565b82525050565b5f604082019050610bf05f830185610bce565b610bfd6020830184610a73565b9392505050565b7f5573657220616c726561647920726567697374657265640000000000000000005f82015250565b5f610c38601783610a03565b9150610c4382610c04565b602082019050919050565b5f6020820190508181035f830152610c6581610c2c565b9050919050565b7f4e487b71000000000000000000000000000000000000000000000000000000005f52602260045260245ffd5b5f6002820490506001821680610cb057607f821691505b602082108103610cc357610cc2610c6c565b5b50919050565b5f819050815f5260205f209050919050565b5f6020601f8301049050919050565b5f82821b905092915050565b5f60088302610d257fffffffffffffffffffffffffffffffffffffffffffffffffffffffffffffffff82610cea565b610d2f8683610cea565b95508019841693508086168417925050509392505050565b5f819050919050565b5f610d6a610d65610d6084610793565b610d47565b610793565b9050919050565b5f819050919050565b610d8383610d50565b610d97610d8f82610d71565b848454610cf6565b825550505050565b5f90565b610dab610d9f565b610db6818484610d7a565b505050565b5b81811015610dd957610dce5f82610da3565b600181019050610dbc565b5050565b601f821115610e1e57610def81610cc9565b610df884610cdb565b81016020851015610e07578190505b610e1b610e1385610cdb565b830182610dbb565b50505b505050565b5f82821c905092915050565b5f610e3e5f1984600802610e23565b1980831691505092915050565b5f610e568383610e2f565b9150826002028217905092915050565b610e6f826109f9565b67ffffffffffffffff811115610e8857610e87610809565b5b610e928254610c99565b610e9d828285610ddd565b5f60209050601f831160018114610ece575f8415610ebc578287015190505b610ec68582610e4b565b865550610f2d565b601f198416610edc86610cc9565b5f5b82811015610f0357848901518255600182019150602085019450602081019050610ede565b86831015610f205784890151610f1c601f891682610e2f565b8355505b6001600288020188555050505b505050505050565b5f604082019050610f485f830185610bce565b8181036020830152610f5a8184610a3b565b90509392505050565b7f496e73756666696369656e7420746f6b656e73000000000000000000000000005f82015250565b5f610f97601383610a03565b9150610fa282610f63565b602082019050919050565b5f6020820190508181035f830152610fc481610f8b565b9050919050565b5f610fd582610793565b9150610fe083610793565b9250828203905081811115610ff857610ff7610b6e565b5b9291505056fea264697066735822122047f4feb383bc5d7a13e5c678d617fd27f064688ea454c5eb83fc663e2924522b64736f6c63430008150033",
  "immutableReferences": {},
  "source": "// SPDX-License-Identifier: MIT\r\npragma solidity ^0.8.21;\r\n\r\ncontract EnergyTrading {\r\n    // Structure to store user details\r\n    struct User {\r\n        string name;\r\n        uint256 tokens;\r\n        bool isRegistered;\r\n    }\r\n\r\n    // Mapping to store users\r\n    mapping(address => User) public users;\r\n\r\n    // Event declarations\r\n    event UserRegistered(address user, string name);\r\n    event EnergyBought(address buyer, uint256 amount);\r\n    event EnergySold(address seller, uint256 amount);\r\n\r\n    // Function to register a user\r\n    function registerUser(string memory _name) public {\r\n        require(!users[msg.sender].isRegistered, \"User already registered\");\r\n        users[msg.sender] = User(_name, 100, true); // Default tokens set to 100\r\n        emit UserRegistered(msg.sender, _name);\r\n    }\r\n\r\n    // Function to buy energy\r\n    function buyEnergy(uint256 _amount) public {\r\n        require(users[msg.sender].isRegistered, \"User not registered\");\r\n        require(users[msg.sender].tokens >= _amount, \"Insufficient tokens\");\r\n\r\n        users[msg.sender].tokens -= _amount;\r\n        emit EnergyBought(msg.sender, _amount);\r\n    }\r\n\r\n    // Function to sell energy\r\n    function sellEnergy(uint256 _amount) public {\r\n        require(users[msg.sender].isRegistered, \"User not registered\");\r\n\r\n        users[msg.sender].tokens += _amount;\r\n        emit EnergySold(msg.sender, _amount);\r\n    }\r\n\r\n    // Function to get user details\r\n    function getUserDetails(address _user) public view returns (string memory, uint256) {\r\n        require(users[_user].isRegistered, \"User not registered\");\r\n        User memory user = users[_user];\r\n        return (user.name, user.tokens);\r\n    }\r\n}\r\n",
  "sourcePath": "C:\\Users\\USER\\Desktop\\blockchain\\Blockchain\\contracts\\EnergyTrading.sol",
  "compiler": {
    "name": "solc",
    "version": "0.8.21+commit.d9974bed.Emscripten.clang"
  },
  "schemaVersion": "3.4.16",
  "updatedAt": "2024-12-06T23:23:49.367Z",
  "devdoc": {
    "kind": "dev",
    "methods": {},
    "version": 1
  },
  "userdoc": {
    "kind": "user",
    "methods": {},
    "version": 1
  }
}