{
  "contractName": "EnergyTrading",
  "abi": [
    {
      "anonymous": false,
      "inputs": [
        {
          "indexed": false,
          "internalType": "address",
          "name": "user",
          "type": "address"
        },
        {
          "indexed": false,
          "internalType": "string",
          "name": "name",
          "type": "string"
        }
      ],
      "name": "UserRegistered",
      "type": "event"
    },
    {
      "inputs": [
        {
          "internalType": "address",
          "name": "",
          "type": "address"
        }
      ],
      "name": "users",
      "outputs": [
        {
          "internalType": "string",
          "name": "name",
          "type": "string"
        },
        {
          "internalType": "uint256",
          "name": "tokens",
          "type": "uint256"
        },
        {
          "internalType": "bool",
          "name": "isRegistered",
          "type": "bool"
        },
        {
          "internalType": "bytes32",
          "name": "passwordHash",
          "type": "bytes32"
        }
      ],
      "stateMutability": "view",
      "type": "function",
      "constant": true
    },
    {
      "inputs": [
        {
          "internalType": "string",
          "name": "_name",
          "type": "string"
        },
        {
          "internalType": "bytes32",
          "name": "_passwordHash",
          "type": "bytes32"
        }
      ],
      "name": "registerUserWithCredentials",
      "outputs": [],
      "stateMutability": "nonpayable",
      "type": "function"
    },
    {
      "inputs": [
        {
          "internalType": "address",
          "name": "_user",
          "type": "address"
        }
      ],
      "name": "getUserDetails",
      "outputs": [
        {
          "internalType": "string",
          "name": "",
          "type": "string"
        },
        {
          "internalType": "uint256",
          "name": "",
          "type": "uint256"
        }
      ],
      "stateMutability": "view",
      "type": "function",
      "constant": true
    },
    {
      "inputs": [
        {
          "internalType": "uint256",
          "name": "_amount",
          "type": "uint256"
        }
      ],
      "name": "buyEnergy",
      "outputs": [],
      "stateMutability": "nonpayable",
      "type": "function"
    },
    {
      "inputs": [
        {
          "internalType": "uint256",
          "name": "_amount",
          "type": "uint256"
        }
      ],
      "name": "sellEnergy",
      "outputs": [],
      "stateMutability": "nonpayable",
      "type": "function"
    }
  ],
  "bytecode": "0x608060405234801561000f575f80fd5b506110178061001d5f395ff3fe608060405234801561000f575f80fd5b5060043610610055575f3560e01c806324db2394146100595780634326ee3614610075578063a87430ba14610091578063bc8a251f146100c4578063cc3d967b146100e0575b5f80fd5b610073600480360381019061006e91906108a9565b610111565b005b61008f600480360381019061008a9190610936565b610285565b005b6100ab60048036038101906100a691906109bb565b610368565b6040516100bb9493929190610a98565b60405180910390f35b6100de60048036038101906100d99190610936565b610425565b005b6100fa60048036038101906100f591906109bb565b61058a565b604051610108929190610ae2565b60405180910390f35b5f803373ffffffffffffffffffffffffffffffffffffffff1673ffffffffffffffffffffffffffffffffffffffff1681526020019081526020015f206002015f9054906101000a900460ff161561019d576040517f08c379a000000000000000000000000000000000000000000000000000000000815260040161019490610b5a565b60405180910390fd5b604051806080016040528083815260200160648152602001600115158152602001828152505f803373ffffffffffffffffffffffffffffffffffffffff1673ffffffffffffffffffffffffffffffffffffffff1681526020019081526020015f205f820151815f0190816102119190610d72565b50602082015181600101556040820151816002015f6101000a81548160ff021916908315150217905550606082015181600301559050507f48cac28ad4dc618e15f4c2dd5e97751182f166de97b25618318b2112aa951a2f3383604051610279929190610e50565b60405180910390a15050565b5f803373ffffffffffffffffffffffffffffffffffffffff1673ffffffffffffffffffffffffffffffffffffffff1681526020019081526020015f206002015f9054906101000a900460ff16610310576040517f08c379a000000000000000000000000000000000000000000000000000000000815260040161030790610ec8565b60405180910390fd5b805f803373ffffffffffffffffffffffffffffffffffffffff1673ffffffffffffffffffffffffffffffffffffffff1681526020019081526020015f206001015f82825461035e9190610f13565b9250508190555050565b5f602052805f5260405f205f91509050805f01805461038690610ba5565b80601f01602080910402602001604051908101604052809291908181526020018280546103b290610ba5565b80156103fd5780601f106103d4576101008083540402835291602001916103fd565b820191905f5260205f20905b8154815290600101906020018083116103e057829003601f168201915b505050505090806001015490806002015f9054906101000a900460ff16908060030154905084565b5f803373ffffffffffffffffffffffffffffffffffffffff1673ffffffffffffffffffffffffffffffffffffffff1681526020019081526020015f206002015f9054906101000a900460ff166104b0576040517f08c379a00000000000000000000000000000000000000000000000000000000081526004016104a790610ec8565b60405180910390fd5b805f803373ffffffffffffffffffffffffffffffffffffffff1673ffffffffffffffffffffffffffffffffffffffff1681526020019081526020015f20600101541015610532576040517f08c379a000000000000000000000000000000000000000000000000000000000815260040161052990610f90565b60405180910390fd5b805f803373ffffffffffffffffffffffffffffffffffffffff1673ffffffffffffffffffffffffffffffffffffffff1681526020019081526020015f206001015f8282546105809190610fae565b9250508190555050565b60605f805f8473ffffffffffffffffffffffffffffffffffffffff1673ffffffffffffffffffffffffffffffffffffffff1681526020019081526020015f206002015f9054906101000a900460ff16610618576040517f08c379a000000000000000000000000000000000000000000000000000000000815260040161060f90610ec8565b60405180910390fd5b5f808473ffffffffffffffffffffffffffffffffffffffff1673ffffffffffffffffffffffffffffffffffffffff1681526020019081526020015f205f015f808573ffffffffffffffffffffffffffffffffffffffff1673ffffffffffffffffffffffffffffffffffffffff1681526020019081526020015f20600101548180546106a290610ba5565b80601f01602080910402602001604051908101604052809291908181526020018280546106ce90610ba5565b80156107195780601f106106f057610100808354040283529160200191610719565b820191905f5260205f20905b8154815290600101906020018083116106fc57829003601f168201915b5050505050915091509150915091565b5f604051905090565b5f80fd5b5f80fd5b5f80fd5b5f80fd5b5f601f19601f8301169050919050565b7f4e487b71000000000000000000000000000000000000000000000000000000005f52604160045260245ffd5b61078882610742565b810181811067ffffffffffffffff821117156107a7576107a6610752565b5b80604052505050565b5f6107b9610729565b90506107c5828261077f565b919050565b5f67ffffffffffffffff8211156107e4576107e3610752565b5b6107ed82610742565b9050602081019050919050565b828183375f83830152505050565b5f61081a610815846107ca565b6107b0565b9050828152602081018484840111156108365761083561073e565b5b6108418482856107fa565b509392505050565b5f82601f83011261085d5761085c61073a565b5b813561086d848260208601610808565b91505092915050565b5f819050919050565b61088881610876565b8114610892575f80fd5b50565b5f813590506108a38161087f565b92915050565b5f80604083850312156108bf576108be610732565b5b5f83013567ffffffffffffffff8111156108dc576108db610736565b5b6108e885828601610849565b92505060206108f985828601610895565b9150509250929050565b5f819050919050565b61091581610903565b811461091f575f80fd5b50565b5f813590506109308161090c565b92915050565b5f6020828403121561094b5761094a610732565b5b5f61095884828501610922565b91505092915050565b5f73ffffffffffffffffffffffffffffffffffffffff82169050919050565b5f61098a82610961565b9050919050565b61099a81610980565b81146109a4575f80fd5b50565b5f813590506109b581610991565b92915050565b5f602082840312156109d0576109cf610732565b5b5f6109dd848285016109a7565b91505092915050565b5f81519050919050565b5f82825260208201905092915050565b5f5b83811015610a1d578082015181840152602081019050610a02565b5f8484015250505050565b5f610a32826109e6565b610a3c81856109f0565b9350610a4c818560208601610a00565b610a5581610742565b840191505092915050565b610a6981610903565b82525050565b5f8115159050919050565b610a8381610a6f565b82525050565b610a9281610876565b82525050565b5f6080820190508181035f830152610ab08187610a28565b9050610abf6020830186610a60565b610acc6040830185610a7a565b610ad96060830184610a89565b95945050505050565b5f6040820190508181035f830152610afa8185610a28565b9050610b096020830184610a60565b9392505050565b7f5573657220616c726561647920726567697374657265640000000000000000005f82015250565b5f610b446017836109f0565b9150610b4f82610b10565b602082019050919050565b5f6020820190508181035f830152610b7181610b38565b9050919050565b7f4e487b71000000000000000000000000000000000000000000000000000000005f52602260045260245ffd5b5f6002820490506001821680610bbc57607f821691505b602082108103610bcf57610bce610b78565b5b50919050565b5f819050815f5260205f209050919050565b5f6020601f8301049050919050565b5f82821b905092915050565b5f60088302610c317fffffffffffffffffffffffffffffffffffffffffffffffffffffffffffffffff82610bf6565b610c3b8683610bf6565b95508019841693508086168417925050509392505050565b5f819050919050565b5f610c76610c71610c6c84610903565b610c53565b610903565b9050919050565b5f819050919050565b610c8f83610c5c565b610ca3610c9b82610c7d565b848454610c02565b825550505050565b5f90565b610cb7610cab565b610cc2818484610c86565b505050565b5b81811015610ce557610cda5f82610caf565b600181019050610cc8565b5050565b601f821115610d2a57610cfb81610bd5565b610d0484610be7565b81016020851015610d13578190505b610d27610d1f85610be7565b830182610cc7565b50505b505050565b5f82821c905092915050565b5f610d4a5f1984600802610d2f565b1980831691505092915050565b5f610d628383610d3b565b9150826002028217905092915050565b610d7b826109e6565b67ffffffffffffffff811115610d9457610d93610752565b5b610d9e8254610ba5565b610da9828285610ce9565b5f60209050601f831160018114610dda575f8415610dc8578287015190505b610dd28582610d57565b865550610e39565b601f198416610de886610bd5565b5f5b82811015610e0f57848901518255600182019150602085019450602081019050610dea565b86831015610e2c5784890151610e28601f891682610d3b565b8355505b6001600288020188555050505b505050505050565b610e4a81610980565b82525050565b5f604082019050610e635f830185610e41565b8181036020830152610e758184610a28565b90509392505050565b7f55736572206e6f742072656769737465726564000000000000000000000000005f82015250565b5f610eb26013836109f0565b9150610ebd82610e7e565b602082019050919050565b5f6020820190508181035f830152610edf81610ea6565b9050919050565b7f4e487b71000000000000000000000000000000000000000000000000000000005f52601160045260245ffd5b5f610f1d82610903565b9150610f2883610903565b9250828201905080821115610f4057610f3f610ee6565b5b92915050565b7f496e73756666696369656e7420746f6b656e73000000000000000000000000005f82015250565b5f610f7a6013836109f0565b9150610f8582610f46565b602082019050919050565b5f6020820190508181035f830152610fa781610f6e565b9050919050565b5f610fb882610903565b9150610fc383610903565b9250828203905081811115610fdb57610fda610ee6565b5b9291505056fea264697066735822122020f7b9b11e653eb3a23a86ffa304b321ef151d3a491e910655e81fcbb2cc2ea264736f6c63430008150033",
  "immutableReferences": {},
  "source": "// SPDX-License-Identifier: MIT\r\npragma solidity ^0.8.21;\r\n\r\ncontract EnergyTrading {\r\n    struct User {\r\n        string name;\r\n        uint256 tokens;\r\n        bool isRegistered;\r\n        bytes32 passwordHash; // Store the hash of the user's password\r\n    }\r\n\r\n    mapping(address => User) public users;\r\n\r\n    event UserRegistered(address user, string name);\r\n\r\n    function registerUserWithCredentials(string memory _name, bytes32 _passwordHash) public {\r\n        require(!users[msg.sender].isRegistered, \"User already registered\");\r\n        users[msg.sender] = User({\r\n            name: _name,\r\n            tokens: 100,\r\n            isRegistered: true,\r\n            passwordHash: _passwordHash\r\n        });\r\n        emit UserRegistered(msg.sender, _name);\r\n    }\r\n\r\n    // Since we now rely on password verification, we remove the require statement from getUserDetails\r\n    // or we leave it, but remember we must first verify on the frontend before calling restricted functions.\r\n    function getUserDetails(address _user) public view returns (string memory, uint256) {\r\n        require(users[_user].isRegistered, \"User not registered\");\r\n        return (users[_user].name, users[_user].tokens);\r\n    }\r\n\r\n    // Buy and sell functions remain the same, but you will only call them after verifying user credentials off-chain.\r\n    function buyEnergy(uint256 _amount) public {\r\n        require(users[msg.sender].isRegistered, \"User not registered\");\r\n        require(users[msg.sender].tokens >= _amount, \"Insufficient tokens\");\r\n\r\n        users[msg.sender].tokens -= _amount;\r\n    }\r\n\r\n    function sellEnergy(uint256 _amount) public {\r\n        require(users[msg.sender].isRegistered, \"User not registered\");\r\n        users[msg.sender].tokens += _amount;\r\n    }\r\n}\r\n\r\n",
  "sourcePath": "C:\\Users\\USER\\Desktop\\blockchain\\Blockchain\\contracts\\EnergyTrading.sol",
  "compiler": {
    "name": "solc",
    "version": "0.8.21+commit.d9974bed.Emscripten.clang"
  },
  "schemaVersion": "3.4.16",
  "updatedAt": "2024-12-08T14:37:16.559Z",
  "networkType": "ethereum",
  "devdoc": {
    "kind": "dev",
    "methods": {},
    "version": 1
  },
  "userdoc": {
    "kind": "user",
    "methods": {},
    "version": 1
  }
}