{
  "contractName": "MainBlockchain",
  "abi": [
    {
      "anonymous": false,
      "inputs": [
        {
          "indexed": true,
          "internalType": "address",
          "name": "subBlockchain",
          "type": "address"
        },
        {
          "indexed": false,
          "internalType": "string",
          "name": "neighborhoodName",
          "type": "string"
        }
      ],
      "name": "SubBlockchainRegistered",
      "type": "event"
    },
    {
      "anonymous": false,
      "inputs": [
        {
          "indexed": true,
          "internalType": "address",
          "name": "subBlockchain",
          "type": "address"
        },
        {
          "indexed": false,
          "internalType": "uint256",
          "name": "totalTransactions",
          "type": "uint256"
        },
        {
          "indexed": false,
          "internalType": "uint256",
          "name": "totalTokensTraded",
          "type": "uint256"
        }
      ],
      "name": "SubBlockchainReported",
      "type": "event"
    },
    {
      "anonymous": false,
      "inputs": [
        {
          "indexed": true,
          "internalType": "address",
          "name": "user",
          "type": "address"
        },
        {
          "indexed": false,
          "internalType": "string",
          "name": "neighborhood",
          "type": "string"
        }
      ],
      "name": "UserAssigned",
      "type": "event"
    },
    {
      "inputs": [
        {
          "internalType": "uint256",
          "name": "",
          "type": "uint256"
        }
      ],
      "name": "subBlockchainAddresses",
      "outputs": [
        {
          "internalType": "address",
          "name": "",
          "type": "address"
        }
      ],
      "stateMutability": "view",
      "type": "function",
      "constant": true
    },
    {
      "inputs": [
        {
          "internalType": "address",
          "name": "",
          "type": "address"
        }
      ],
      "name": "subBlockchainNeighborhoods",
      "outputs": [
        {
          "internalType": "string",
          "name": "",
          "type": "string"
        }
      ],
      "stateMutability": "view",
      "type": "function",
      "constant": true
    },
    {
      "inputs": [
        {
          "internalType": "address",
          "name": "",
          "type": "address"
        }
      ],
      "name": "subBlockchains",
      "outputs": [
        {
          "internalType": "uint256",
          "name": "totalTransactions",
          "type": "uint256"
        },
        {
          "internalType": "uint256",
          "name": "totalTokensTraded",
          "type": "uint256"
        }
      ],
      "stateMutability": "view",
      "type": "function",
      "constant": true
    },
    {
      "inputs": [
        {
          "internalType": "address",
          "name": "",
          "type": "address"
        }
      ],
      "name": "userNeighborhoods",
      "outputs": [
        {
          "internalType": "string",
          "name": "",
          "type": "string"
        }
      ],
      "stateMutability": "view",
      "type": "function",
      "constant": true
    },
    {
      "inputs": [
        {
          "internalType": "address",
          "name": "_subBlockchain",
          "type": "address"
        },
        {
          "internalType": "string",
          "name": "_neighborhoodName",
          "type": "string"
        }
      ],
      "name": "registerSubBlockchain",
      "outputs": [],
      "stateMutability": "nonpayable",
      "type": "function"
    },
    {
      "inputs": [
        {
          "internalType": "address",
          "name": "_user",
          "type": "address"
        },
        {
          "internalType": "string",
          "name": "_neighborhood",
          "type": "string"
        }
      ],
      "name": "assignUserToNeighborhood",
      "outputs": [],
      "stateMutability": "nonpayable",
      "type": "function"
    },
    {
      "inputs": [
        {
          "internalType": "address",
          "name": "_subBlockchain",
          "type": "address"
        },
        {
          "internalType": "uint256",
          "name": "_totalTransactions",
          "type": "uint256"
        },
        {
          "internalType": "uint256",
          "name": "_totalTokensTraded",
          "type": "uint256"
        }
      ],
      "name": "receiveReport",
      "outputs": [],
      "stateMutability": "nonpayable",
      "type": "function"
    },
    {
      "inputs": [
        {
          "internalType": "address",
          "name": "_subBlockchain",
          "type": "address"
        }
      ],
      "name": "isRegisteredSubBlockchain",
      "outputs": [
        {
          "internalType": "bool",
          "name": "",
          "type": "bool"
        }
      ],
      "stateMutability": "view",
      "type": "function",
      "constant": true
    },
    {
      "inputs": [
        {
          "internalType": "address",
          "name": "_subBlockchain",
          "type": "address"
        }
      ],
      "name": "getSubBlockchainData",
      "outputs": [
        {
          "internalType": "uint256",
          "name": "",
          "type": "uint256"
        },
        {
          "internalType": "uint256",
          "name": "",
          "type": "uint256"
        }
      ],
      "stateMutability": "view",
      "type": "function",
      "constant": true
    },
    {
      "inputs": [],
      "name": "getAllSubBlockchainAddresses",
      "outputs": [
        {
          "internalType": "address[]",
          "name": "",
          "type": "address[]"
        }
      ],
      "stateMutability": "view",
      "type": "function",
      "constant": true
    }
  ],
  "bytecode": "0x608060405234801561000f575f80fd5b506111628061001d5f395ff3fe608060405234801561000f575f80fd5b506004361061009c575f3560e01c806362a281211161006457806362a28121146101805780638999bf991461019c578063a2d4d79c146101cc578063a8294753146101e8578063d833e3a4146102045761009c565b80630703cb5d146100a05780631a101431146100d057806349db882a146101015780634e6f24d0146101315780635a47b3ac14610162575b5f80fd5b6100ba60048036038101906100b5919061088f565b610234565b6040516100c791906108f9565b60405180910390f35b6100ea60048036038101906100e5919061093c565b61026f565b6040516100f8929190610976565b60405180910390f35b61011b6004803603810190610116919061093c565b6102e2565b6040516101289190610a27565b60405180910390f35b61014b6004803603810190610146919061093c565b61037d565b604051610159929190610976565b60405180910390f35b61016a61039d565b6040516101779190610afe565b60405180910390f35b61019a60048036038101906101959190610c4a565b610428565b005b6101b660048036038101906101b1919061093c565b6104c5565b6040516101c39190610a27565b60405180910390f35b6101e660048036038101906101e19190610ca4565b61055f565b005b61020260048036038101906101fd9190610c4a565b6106a7565b005b61021e6004803603810190610219919061093c565b6107a3565b60405161022b9190610d0e565b60405180910390f35b60038181548110610243575f80fd5b905f5260205f20015f915054906101000a900473ffffffffffffffffffffffffffffffffffffffff1681565b5f805f60015f8573ffffffffffffffffffffffffffffffffffffffff1673ffffffffffffffffffffffffffffffffffffffff1681526020019081526020015f206040518060400160405290815f82015481526020016001820154815250509050805f015181602001519250925050915091565b6002602052805f5260405f205f9150905080546102fe90610d54565b80601f016020809104026020016040519081016040528092919081815260200182805461032a90610d54565b80156103755780601f1061034c57610100808354040283529160200191610375565b820191905f5260205f20905b81548152906001019060200180831161035857829003601f168201915b505050505081565b6001602052805f5260405f205f91509050805f0154908060010154905082565b6060600380548060200260200160405190810160405280929190818152602001828054801561041e57602002820191905f5260205f20905b815f9054906101000a900473ffffffffffffffffffffffffffffffffffffffff1673ffffffffffffffffffffffffffffffffffffffff16815260200190600101908083116103d5575b5050505050905090565b8060025f8473ffffffffffffffffffffffffffffffffffffffff1673ffffffffffffffffffffffffffffffffffffffff1681526020019081526020015f2090816104729190610f21565b508173ffffffffffffffffffffffffffffffffffffffff167f4938c7095b9402d2b172e13514b96e6c067887dc77333e7db10536dd5d0b78ae826040516104b99190610a27565b60405180910390a25050565b5f602052805f5260405f205f9150905080546104e090610d54565b80601f016020809104026020016040519081016040528092919081815260200182805461050c90610d54565b80156105575780601f1061052e57610100808354040283529160200191610557565b820191905f5260205f20905b81548152906001019060200180831161053a57829003601f168201915b505050505081565b610568836107a3565b6105a7576040517f08c379a000000000000000000000000000000000000000000000000000000000815260040161059e9061103a565b60405180910390fd5b8160015f8573ffffffffffffffffffffffffffffffffffffffff1673ffffffffffffffffffffffffffffffffffffffff1681526020019081526020015f205f015f8282546105f59190611085565b925050819055508060015f8573ffffffffffffffffffffffffffffffffffffffff1673ffffffffffffffffffffffffffffffffffffffff1681526020019081526020015f206001015f82825461064b9190611085565b925050819055508273ffffffffffffffffffffffffffffffffffffffff167f6e003cd542ce7808fdcd4100406853018573218899247840ad6d3612b4f695f8838360405161069a929190610976565b60405180910390a2505050565b805f808473ffffffffffffffffffffffffffffffffffffffff1673ffffffffffffffffffffffffffffffffffffffff1681526020019081526020015f2090816106f09190610f21565b50600382908060018154018082558091505060019003905f5260205f20015f9091909190916101000a81548173ffffffffffffffffffffffffffffffffffffffff021916908373ffffffffffffffffffffffffffffffffffffffff1602179055508173ffffffffffffffffffffffffffffffffffffffff167f21d116d19a35201fa6c6532aad909bdf55aa576413508fd9c1e6dd7d0c3d9505826040516107979190610a27565b60405180910390a25050565b5f805f90505b600380549050811015610841578273ffffffffffffffffffffffffffffffffffffffff16600382815481106107e1576107e06110b8565b5b905f5260205f20015f9054906101000a900473ffffffffffffffffffffffffffffffffffffffff1673ffffffffffffffffffffffffffffffffffffffff160361082e576001915050610846565b8080610839906110e5565b9150506107a9565b505f90505b919050565b5f604051905090565b5f80fd5b5f80fd5b5f819050919050565b61086e8161085c565b8114610878575f80fd5b50565b5f8135905061088981610865565b92915050565b5f602082840312156108a4576108a3610854565b5b5f6108b18482850161087b565b91505092915050565b5f73ffffffffffffffffffffffffffffffffffffffff82169050919050565b5f6108e3826108ba565b9050919050565b6108f3816108d9565b82525050565b5f60208201905061090c5f8301846108ea565b92915050565b61091b816108d9565b8114610925575f80fd5b50565b5f8135905061093681610912565b92915050565b5f6020828403121561095157610950610854565b5b5f61095e84828501610928565b91505092915050565b6109708161085c565b82525050565b5f6040820190506109895f830185610967565b6109966020830184610967565b9392505050565b5f81519050919050565b5f82825260208201905092915050565b5f5b838110156109d45780820151818401526020810190506109b9565b5f8484015250505050565b5f601f19601f8301169050919050565b5f6109f98261099d565b610a0381856109a7565b9350610a138185602086016109b7565b610a1c816109df565b840191505092915050565b5f6020820190508181035f830152610a3f81846109ef565b905092915050565b5f81519050919050565b5f82825260208201905092915050565b5f819050602082019050919050565b610a79816108d9565b82525050565b5f610a8a8383610a70565b60208301905092915050565b5f602082019050919050565b5f610aac82610a47565b610ab68185610a51565b9350610ac183610a61565b805f5b83811015610af1578151610ad88882610a7f565b9750610ae383610a96565b925050600181019050610ac4565b5085935050505092915050565b5f6020820190508181035f830152610b168184610aa2565b905092915050565b5f80fd5b5f80fd5b7f4e487b71000000000000000000000000000000000000000000000000000000005f52604160045260245ffd5b610b5c826109df565b810181811067ffffffffffffffff82111715610b7b57610b7a610b26565b5b80604052505050565b5f610b8d61084b565b9050610b998282610b53565b919050565b5f67ffffffffffffffff821115610bb857610bb7610b26565b5b610bc1826109df565b9050602081019050919050565b828183375f83830152505050565b5f610bee610be984610b9e565b610b84565b905082815260208101848484011115610c0a57610c09610b22565b5b610c15848285610bce565b509392505050565b5f82601f830112610c3157610c30610b1e565b5b8135610c41848260208601610bdc565b91505092915050565b5f8060408385031215610c6057610c5f610854565b5b5f610c6d85828601610928565b925050602083013567ffffffffffffffff811115610c8e57610c8d610858565b5b610c9a85828601610c1d565b9150509250929050565b5f805f60608486031215610cbb57610cba610854565b5b5f610cc886828701610928565b9350506020610cd98682870161087b565b9250506040610cea8682870161087b565b9150509250925092565b5f8115159050919050565b610d0881610cf4565b82525050565b5f602082019050610d215f830184610cff565b92915050565b7f4e487b71000000000000000000000000000000000000000000000000000000005f52602260045260245ffd5b5f6002820490506001821680610d6b57607f821691505b602082108103610d7e57610d7d610d27565b5b50919050565b5f819050815f5260205f209050919050565b5f6020601f8301049050919050565b5f82821b905092915050565b5f60088302610de07fffffffffffffffffffffffffffffffffffffffffffffffffffffffffffffffff82610da5565b610dea8683610da5565b95508019841693508086168417925050509392505050565b5f819050919050565b5f610e25610e20610e1b8461085c565b610e02565b61085c565b9050919050565b5f819050919050565b610e3e83610e0b565b610e52610e4a82610e2c565b848454610db1565b825550505050565b5f90565b610e66610e5a565b610e71818484610e35565b505050565b5b81811015610e9457610e895f82610e5e565b600181019050610e77565b5050565b601f821115610ed957610eaa81610d84565b610eb384610d96565b81016020851015610ec2578190505b610ed6610ece85610d96565b830182610e76565b50505b505050565b5f82821c905092915050565b5f610ef95f1984600802610ede565b1980831691505092915050565b5f610f118383610eea565b9150826002028217905092915050565b610f2a8261099d565b67ffffffffffffffff811115610f4357610f42610b26565b5b610f4d8254610d54565b610f58828285610e98565b5f60209050601f831160018114610f89575f8415610f77578287015190505b610f818582610f06565b865550610fe8565b601f198416610f9786610d84565b5f5b82811015610fbe57848901518255600182019150602085019450602081019050610f99565b86831015610fdb5784890151610fd7601f891682610eea565b8355505b6001600288020188555050505b505050505050565b7f5375622d626c6f636b636861696e206e6f7420726567697374657265640000005f82015250565b5f611024601d836109a7565b915061102f82610ff0565b602082019050919050565b5f6020820190508181035f83015261105181611018565b9050919050565b7f4e487b71000000000000000000000000000000000000000000000000000000005f52601160045260245ffd5b5f61108f8261085c565b915061109a8361085c565b92508282019050808211156110b2576110b1611058565b5b92915050565b7f4e487b71000000000000000000000000000000000000000000000000000000005f52603260045260245ffd5b5f6110ef8261085c565b91507fffffffffffffffffffffffffffffffffffffffffffffffffffffffffffffffff820361112157611120611058565b5b60018201905091905056fea2646970667358221220a271997f41baa3e89d162e78ac9fa2628460996b538affe4f27b322ac9e26acf64736f6c63430008150033",
  "immutableReferences": {},
  "source": "// SPDX-License-Identifier: MIT\r\npragma solidity ^0.8.21;\r\n\r\ncontract MainBlockchain {\r\n    struct SubBlockchainData {\r\n        uint256 totalTransactions;\r\n        uint256 totalTokensTraded;\r\n    }\r\n\r\n    mapping(address => string) public subBlockchainNeighborhoods; // Maps sub-blockchain addresses to neighborhood names\r\n    mapping(address => SubBlockchainData) public subBlockchains;   // Data for each sub-blockchain\r\n    mapping(address => string) public userNeighborhoods;           // Maps user addresses to their neighborhood\r\n    address[] public subBlockchainAddresses;                      // List of all sub-blockchains\r\n\r\n    event SubBlockchainRegistered(address indexed subBlockchain, string neighborhoodName);\r\n    event UserAssigned(address indexed user, string neighborhood);\r\n    event SubBlockchainReported(address indexed subBlockchain, uint256 totalTransactions, uint256 totalTokensTraded);\r\n\r\n    function registerSubBlockchain(address _subBlockchain, string memory _neighborhoodName) public {\r\n        subBlockchainNeighborhoods[_subBlockchain] = _neighborhoodName;\r\n        subBlockchainAddresses.push(_subBlockchain);\r\n\r\n        emit SubBlockchainRegistered(_subBlockchain, _neighborhoodName);\r\n    }\r\n\r\n    function assignUserToNeighborhood(address _user, string memory _neighborhood) public {\r\n        userNeighborhoods[_user] = _neighborhood;\r\n        emit UserAssigned(_user, _neighborhood);\r\n    }\r\n\r\n    function receiveReport(address _subBlockchain, uint256 _totalTransactions, uint256 _totalTokensTraded) public {\r\n        require(isRegisteredSubBlockchain(_subBlockchain), \"Sub-blockchain not registered\");\r\n\r\n        subBlockchains[_subBlockchain].totalTransactions += _totalTransactions;\r\n        subBlockchains[_subBlockchain].totalTokensTraded += _totalTokensTraded;\r\n\r\n        emit SubBlockchainReported(_subBlockchain, _totalTransactions, _totalTokensTraded);\r\n    }\r\n\r\n    function isRegisteredSubBlockchain(address _subBlockchain) public view returns (bool) {\r\n        for (uint256 i = 0; i < subBlockchainAddresses.length; i++) {\r\n            if (subBlockchainAddresses[i] == _subBlockchain) {\r\n                return true;\r\n            }\r\n        }\r\n        return false;\r\n    }\r\n\r\n    function getSubBlockchainData(address _subBlockchain) public view returns (uint256, uint256) {\r\n        SubBlockchainData memory data = subBlockchains[_subBlockchain];\r\n        return (data.totalTransactions, data.totalTokensTraded);\r\n    }\r\n    function getAllSubBlockchainAddresses() public view returns (address[] memory) {\r\n    return subBlockchainAddresses;\r\n}\r\n}\r\n",
  "sourcePath": "C:\\Users\\USER\\Desktop\\blockchain\\Blockchain\\contracts\\MainBlockchain.sol",
  "compiler": {
    "name": "solc",
    "version": "0.8.21+commit.d9974bed.Emscripten.clang"
  },
  "schemaVersion": "3.4.16",
  "updatedAt": "2024-12-15T13:57:20.504Z",
  "networkType": "ethereum",
  "devdoc": {
    "kind": "dev",
    "methods": {},
    "version": 1
  },
  "userdoc": {
    "kind": "user",
    "methods": {},
    "version": 1
  }
}