{
  "contractName": "SubBlockchain",
  "abi": [
    {
      "inputs": [
        {
          "internalType": "address",
          "name": "_mainBlockchain",
          "type": "address"
        },
        {
          "internalType": "string",
          "name": "_neighborhoodName",
          "type": "string"
        }
      ],
      "stateMutability": "nonpayable",
      "type": "constructor"
    },
    {
      "anonymous": false,
      "inputs": [
        {
          "indexed": false,
          "internalType": "address",
          "name": "user",
          "type": "address"
        },
        {
          "indexed": false,
          "internalType": "uint256",
          "name": "amount",
          "type": "uint256"
        },
        {
          "indexed": false,
          "internalType": "string",
          "name": "tradeType",
          "type": "string"
        }
      ],
      "name": "EnergyTraded",
      "type": "event"
    },
    {
      "anonymous": false,
      "inputs": [
        {
          "indexed": false,
          "internalType": "address",
          "name": "user",
          "type": "address"
        },
        {
          "indexed": false,
          "internalType": "string",
          "name": "name",
          "type": "string"
        }
      ],
      "name": "UserRegistered",
      "type": "event"
    },
    {
      "inputs": [],
      "name": "mainBlockchain",
      "outputs": [
        {
          "internalType": "address",
          "name": "",
          "type": "address"
        }
      ],
      "stateMutability": "view",
      "type": "function",
      "constant": true
    },
    {
      "inputs": [],
      "name": "neighborhoodName",
      "outputs": [
        {
          "internalType": "string",
          "name": "",
          "type": "string"
        }
      ],
      "stateMutability": "view",
      "type": "function",
      "constant": true
    },
    {
      "inputs": [],
      "name": "totalTokensTraded",
      "outputs": [
        {
          "internalType": "uint256",
          "name": "",
          "type": "uint256"
        }
      ],
      "stateMutability": "view",
      "type": "function",
      "constant": true
    },
    {
      "inputs": [],
      "name": "totalTransactions",
      "outputs": [
        {
          "internalType": "uint256",
          "name": "",
          "type": "uint256"
        }
      ],
      "stateMutability": "view",
      "type": "function",
      "constant": true
    },
    {
      "inputs": [
        {
          "internalType": "address",
          "name": "",
          "type": "address"
        }
      ],
      "name": "users",
      "outputs": [
        {
          "internalType": "string",
          "name": "name",
          "type": "string"
        },
        {
          "internalType": "uint256",
          "name": "tokens",
          "type": "uint256"
        },
        {
          "internalType": "bool",
          "name": "isRegistered",
          "type": "bool"
        },
        {
          "internalType": "bytes32",
          "name": "passwordHash",
          "type": "bytes32"
        }
      ],
      "stateMutability": "view",
      "type": "function",
      "constant": true
    },
    {
      "inputs": [
        {
          "internalType": "string",
          "name": "_name",
          "type": "string"
        },
        {
          "internalType": "bytes32",
          "name": "_passwordHash",
          "type": "bytes32"
        }
      ],
      "name": "registerUser",
      "outputs": [],
      "stateMutability": "nonpayable",
      "type": "function"
    },
    {
      "inputs": [
        {
          "internalType": "uint256",
          "name": "_amount",
          "type": "uint256"
        }
      ],
      "name": "buyEnergy",
      "outputs": [],
      "stateMutability": "nonpayable",
      "type": "function"
    },
    {
      "inputs": [
        {
          "internalType": "uint256",
          "name": "_amount",
          "type": "uint256"
        }
      ],
      "name": "sellEnergy",
      "outputs": [],
      "stateMutability": "nonpayable",
      "type": "function"
    },
    {
      "inputs": [],
      "name": "reportToMainBlockchain",
      "outputs": [],
      "stateMutability": "nonpayable",
      "type": "function"
    }
  ],
  "bytecode": "0x608060405234801562000010575f80fd5b50604051620018d2380380620018d2833981810160405281019062000036919062000276565b8160045f6101000a81548173ffffffffffffffffffffffffffffffffffffffff021916908373ffffffffffffffffffffffffffffffffffffffff160217905550806003908162000087919062000511565b505050620005f5565b5f604051905090565b5f80fd5b5f80fd5b5f73ffffffffffffffffffffffffffffffffffffffff82169050919050565b5f620000cc82620000a1565b9050919050565b620000de81620000c0565b8114620000e9575f80fd5b50565b5f81519050620000fc81620000d3565b92915050565b5f80fd5b5f80fd5b5f601f19601f8301169050919050565b7f4e487b71000000000000000000000000000000000000000000000000000000005f52604160045260245ffd5b62000152826200010a565b810181811067ffffffffffffffff821117156200017457620001736200011a565b5b80604052505050565b5f6200018862000090565b905062000196828262000147565b919050565b5f67ffffffffffffffff821115620001b857620001b76200011a565b5b620001c3826200010a565b9050602081019050919050565b5f5b83811015620001ef578082015181840152602081019050620001d2565b5f8484015250505050565b5f620002106200020a846200019b565b6200017d565b9050828152602081018484840111156200022f576200022e62000106565b5b6200023c848285620001d0565b509392505050565b5f82601f8301126200025b576200025a62000102565b5b81516200026d848260208601620001fa565b91505092915050565b5f80604083850312156200028f576200028e62000099565b5b5f6200029e85828601620000ec565b925050602083015167ffffffffffffffff811115620002c257620002c16200009d565b5b620002d08582860162000244565b9150509250929050565b5f81519050919050565b7f4e487b71000000000000000000000000000000000000000000000000000000005f52602260045260245ffd5b5f60028204905060018216806200032957607f821691505b6020821081036200033f576200033e620002e4565b5b50919050565b5f819050815f5260205f209050919050565b5f6020601f8301049050919050565b5f82821b905092915050565b5f60088302620003a37fffffffffffffffffffffffffffffffffffffffffffffffffffffffffffffffff8262000366565b620003af868362000366565b95508019841693508086168417925050509392505050565b5f819050919050565b5f819050919050565b5f620003f9620003f3620003ed84620003c7565b620003d0565b620003c7565b9050919050565b5f819050919050565b6200041483620003d9565b6200042c620004238262000400565b84845462000372565b825550505050565b5f90565b6200044262000434565b6200044f81848462000409565b505050565b5b8181101562000476576200046a5f8262000438565b60018101905062000455565b5050565b601f821115620004c5576200048f8162000345565b6200049a8462000357565b81016020851015620004aa578190505b620004c2620004b98562000357565b83018262000454565b50505b505050565b5f82821c905092915050565b5f620004e75f1984600802620004ca565b1980831691505092915050565b5f620005018383620004d6565b9150826002028217905092915050565b6200051c82620002da565b67ffffffffffffffff8111156200053857620005376200011a565b5b62000544825462000311565b620005518282856200047a565b5f60209050601f83116001811462000587575f841562000572578287015190505b6200057e8582620004f4565b865550620005ed565b601f198416620005978662000345565b5f5b82811015620005c05784890151825560018201915060208501945060208101905062000599565b86831015620005e05784890151620005dc601f891682620004d6565b8355505b6001600288020188555050505b505050505050565b6112cf80620006035f395ff3fe608060405234801561000f575f80fd5b5060043610610091575f3560e01c8063a87430ba11610064578063a87430ba14610109578063b9a600381461013c578063bb7f3e5c1461015a578063bc8a251f14610164578063c41180d51461018057610091565b80634326ee361461009557806343e3221c146100b157806368ae5563146100cf57806381b54e03146100eb575b5f80fd5b6100af60048036038101906100aa919061087d565b61019e565b005b6100b96102eb565b6040516100c69190610932565b60405180910390f35b6100e960048036038101906100e49190610ab1565b610377565b005b6100f36104eb565b6040516101009190610b4a565b60405180910390f35b610123600480360381019061011e9190610b8d565b610510565b6040516101339493929190610bf0565b60405180910390f35b6101446105cd565b6040516101519190610c3a565b60405180910390f35b6101626105d3565b005b61017e6004803603810190610179919061087d565b610664565b005b610188610833565b6040516101959190610c3a565b60405180910390f35b335f808273ffffffffffffffffffffffffffffffffffffffff1673ffffffffffffffffffffffffffffffffffffffff1681526020019081526020015f206002015f9054906101000a900460ff1661022a576040517f08c379a000000000000000000000000000000000000000000000000000000000815260040161022190610c9d565b60405180910390fd5b815f803373ffffffffffffffffffffffffffffffffffffffff1673ffffffffffffffffffffffffffffffffffffffff1681526020019081526020015f206001015f8282546102789190610ce8565b9250508190555060015f81548092919061029190610d1b565b91905055508160025f8282546102a79190610ce8565b925050819055507f1155d145fcff295708f57a3a8b953aaa31abe40040a51eed8432457b9579ea8433836040516102df929190610dac565b60405180910390a15050565b600380546102f890610e13565b80601f016020809104026020016040519081016040528092919081815260200182805461032490610e13565b801561036f5780601f106103465761010080835404028352916020019161036f565b820191905f5260205f20905b81548152906001019060200180831161035257829003601f168201915b505050505081565b5f803373ffffffffffffffffffffffffffffffffffffffff1673ffffffffffffffffffffffffffffffffffffffff1681526020019081526020015f206002015f9054906101000a900460ff1615610403576040517f08c379a00000000000000000000000000000000000000000000000000000000081526004016103fa90610e8d565b60405180910390fd5b604051806080016040528083815260200160648152602001600115158152602001828152505f803373ffffffffffffffffffffffffffffffffffffffff1673ffffffffffffffffffffffffffffffffffffffff1681526020019081526020015f205f820151815f0190816104779190611048565b50602082015181600101556040820151816002015f6101000a81548160ff021916908315150217905550606082015181600301559050507f48cac28ad4dc618e15f4c2dd5e97751182f166de97b25618318b2112aa951a2f33836040516104df929190611117565b60405180910390a15050565b60045f9054906101000a900473ffffffffffffffffffffffffffffffffffffffff1681565b5f602052805f5260405f205f91509050805f01805461052e90610e13565b80601f016020809104026020016040519081016040528092919081815260200182805461055a90610e13565b80156105a55780601f1061057c576101008083540402835291602001916105a5565b820191905f5260205f20905b81548152906001019060200180831161058857829003601f168201915b505050505090806001015490806002015f9054906101000a900460ff16908060030154905084565b60015481565b60045f9054906101000a900473ffffffffffffffffffffffffffffffffffffffff1673ffffffffffffffffffffffffffffffffffffffff1663a2d4d79c306001546002546040518463ffffffff1660e01b815260040161063593929190611145565b5f604051808303815f87803b15801561064c575f80fd5b505af115801561065e573d5f803e3d5ffd5b50505050565b335f808273ffffffffffffffffffffffffffffffffffffffff1673ffffffffffffffffffffffffffffffffffffffff1681526020019081526020015f206002015f9054906101000a900460ff166106f0576040517f08c379a00000000000000000000000000000000000000000000000000000000081526004016106e790610c9d565b60405180910390fd5b815f803373ffffffffffffffffffffffffffffffffffffffff1673ffffffffffffffffffffffffffffffffffffffff1681526020019081526020015f20600101541015610772576040517f08c379a0000000000000000000000000000000000000000000000000000000008152600401610769906111c4565b60405180910390fd5b815f803373ffffffffffffffffffffffffffffffffffffffff1673ffffffffffffffffffffffffffffffffffffffff1681526020019081526020015f206001015f8282546107c091906111e2565b9250508190555060015f8154809291906107d990610d1b565b91905055508160025f8282546107ef9190610ce8565b925050819055507f1155d145fcff295708f57a3a8b953aaa31abe40040a51eed8432457b9579ea84338360405161082792919061125f565b60405180910390a15050565b60025481565b5f604051905090565b5f80fd5b5f80fd5b5f819050919050565b61085c8161084a565b8114610866575f80fd5b50565b5f8135905061087781610853565b92915050565b5f6020828403121561089257610891610842565b5b5f61089f84828501610869565b91505092915050565b5f81519050919050565b5f82825260208201905092915050565b5f5b838110156108df5780820151818401526020810190506108c4565b5f8484015250505050565b5f601f19601f8301169050919050565b5f610904826108a8565b61090e81856108b2565b935061091e8185602086016108c2565b610927816108ea565b840191505092915050565b5f6020820190508181035f83015261094a81846108fa565b905092915050565b5f80fd5b5f80fd5b7f4e487b71000000000000000000000000000000000000000000000000000000005f52604160045260245ffd5b610990826108ea565b810181811067ffffffffffffffff821117156109af576109ae61095a565b5b80604052505050565b5f6109c1610839565b90506109cd8282610987565b919050565b5f67ffffffffffffffff8211156109ec576109eb61095a565b5b6109f5826108ea565b9050602081019050919050565b828183375f83830152505050565b5f610a22610a1d846109d2565b6109b8565b905082815260208101848484011115610a3e57610a3d610956565b5b610a49848285610a02565b509392505050565b5f82601f830112610a6557610a64610952565b5b8135610a75848260208601610a10565b91505092915050565b5f819050919050565b610a9081610a7e565b8114610a9a575f80fd5b50565b5f81359050610aab81610a87565b92915050565b5f8060408385031215610ac757610ac6610842565b5b5f83013567ffffffffffffffff811115610ae457610ae3610846565b5b610af085828601610a51565b9250506020610b0185828601610a9d565b9150509250929050565b5f73ffffffffffffffffffffffffffffffffffffffff82169050919050565b5f610b3482610b0b565b9050919050565b610b4481610b2a565b82525050565b5f602082019050610b5d5f830184610b3b565b92915050565b610b6c81610b2a565b8114610b76575f80fd5b50565b5f81359050610b8781610b63565b92915050565b5f60208284031215610ba257610ba1610842565b5b5f610baf84828501610b79565b91505092915050565b610bc18161084a565b82525050565b5f8115159050919050565b610bdb81610bc7565b82525050565b610bea81610a7e565b82525050565b5f6080820190508181035f830152610c0881876108fa565b9050610c176020830186610bb8565b610c246040830185610bd2565b610c316060830184610be1565b95945050505050565b5f602082019050610c4d5f830184610bb8565b92915050565b7f55736572206e6f742072656769737465726564000000000000000000000000005f82015250565b5f610c876013836108b2565b9150610c9282610c53565b602082019050919050565b5f6020820190508181035f830152610cb481610c7b565b9050919050565b7f4e487b71000000000000000000000000000000000000000000000000000000005f52601160045260245ffd5b5f610cf28261084a565b9150610cfd8361084a565b9250828201905080821115610d1557610d14610cbb565b5b92915050565b5f610d258261084a565b91507fffffffffffffffffffffffffffffffffffffffffffffffffffffffffffffffff8203610d5757610d56610cbb565b5b600182019050919050565b7f53656c6c000000000000000000000000000000000000000000000000000000005f82015250565b5f610d966004836108b2565b9150610da182610d62565b602082019050919050565b5f606082019050610dbf5f830185610b3b565b610dcc6020830184610bb8565b8181036040830152610ddd81610d8a565b90509392505050565b7f4e487b71000000000000000000000000000000000000000000000000000000005f52602260045260245ffd5b5f6002820490506001821680610e2a57607f821691505b602082108103610e3d57610e3c610de6565b5b50919050565b7f5573657220616c726561647920726567697374657265640000000000000000005f82015250565b5f610e776017836108b2565b9150610e8282610e43565b602082019050919050565b5f6020820190508181035f830152610ea481610e6b565b9050919050565b5f819050815f5260205f209050919050565b5f6020601f8301049050919050565b5f82821b905092915050565b5f60088302610f077fffffffffffffffffffffffffffffffffffffffffffffffffffffffffffffffff82610ecc565b610f118683610ecc565b95508019841693508086168417925050509392505050565b5f819050919050565b5f610f4c610f47610f428461084a565b610f29565b61084a565b9050919050565b5f819050919050565b610f6583610f32565b610f79610f7182610f53565b848454610ed8565b825550505050565b5f90565b610f8d610f81565b610f98818484610f5c565b505050565b5b81811015610fbb57610fb05f82610f85565b600181019050610f9e565b5050565b601f82111561100057610fd181610eab565b610fda84610ebd565b81016020851015610fe9578190505b610ffd610ff585610ebd565b830182610f9d565b50505b505050565b5f82821c905092915050565b5f6110205f1984600802611005565b1980831691505092915050565b5f6110388383611011565b9150826002028217905092915050565b611051826108a8565b67ffffffffffffffff81111561106a5761106961095a565b5b6110748254610e13565b61107f828285610fbf565b5f60209050601f8311600181146110b0575f841561109e578287015190505b6110a8858261102d565b86555061110f565b601f1984166110be86610eab565b5f5b828110156110e5578489015182556001820191506020850194506020810190506110c0565b8683101561110257848901516110fe601f891682611011565b8355505b6001600288020188555050505b505050505050565b5f60408201905061112a5f830185610b3b565b818103602083015261113c81846108fa565b90509392505050565b5f6060820190506111585f830186610b3b565b6111656020830185610bb8565b6111726040830184610bb8565b949350505050565b7f496e73756666696369656e7420746f6b656e73000000000000000000000000005f82015250565b5f6111ae6013836108b2565b91506111b98261117a565b602082019050919050565b5f6020820190508181035f8301526111db816111a2565b9050919050565b5f6111ec8261084a565b91506111f78361084a565b925082820390508181111561120f5761120e610cbb565b5b92915050565b7f42757900000000000000000000000000000000000000000000000000000000005f82015250565b5f6112496003836108b2565b915061125482611215565b602082019050919050565b5f6060820190506112725f830185610b3b565b61127f6020830184610bb8565b81810360408301526112908161123d565b9050939250505056fea2646970667358221220e7179b8bf974a218a2b178437dd285f9eba74e497cc406f024dcbfd02f88303264736f6c63430008150033",
  "immutableReferences": {},
  "source": "// SPDX-License-Identifier: MIT\r\npragma solidity ^0.8.21;\r\n\r\ninterface IMainBlockchain {\r\n    function receiveReport(address _subBlockchain, uint256 _totalTransactions, uint256 _totalTokensTraded) external;\r\n}\r\n\r\ncontract SubBlockchain {\r\n    struct User {\r\n        string name;\r\n        uint256 tokens;\r\n        bool isRegistered;\r\n        bytes32 passwordHash; // Store the hash of the user's password\r\n    }\r\n\r\n    mapping(address => User) public users;\r\n    uint256 public totalTransactions; // Tracks total transactions in the sub-blockchain\r\n    uint256 public totalTokensTraded; // Tracks total tokens traded in the sub-blockchain\r\n    string public neighborhoodName;   // Neighborhood name for this sub-blockchain\r\n    address public mainBlockchain;    // Address of the main blockchain\r\n\r\n    event UserRegistered(address user, string name);\r\n    event EnergyTraded(address user, uint256 amount, string tradeType);\r\n\r\n    constructor(address _mainBlockchain, string memory _neighborhoodName) {\r\n        mainBlockchain = _mainBlockchain;\r\n        neighborhoodName = _neighborhoodName;\r\n    }\r\n\r\n    modifier onlyRegisteredUser(address _user) {\r\n        require(users[_user].isRegistered, \"User not registered\");\r\n        _;\r\n    }\r\n\r\n    function registerUser(string memory _name, bytes32 _passwordHash) public {\r\n        require(!users[msg.sender].isRegistered, \"User already registered\");\r\n\r\n        users[msg.sender] = User({\r\n            name: _name,\r\n            tokens: 100, // Initial token balance\r\n            isRegistered: true,\r\n            passwordHash: _passwordHash\r\n        });\r\n\r\n        emit UserRegistered(msg.sender, _name);\r\n    }\r\n\r\n    function buyEnergy(uint256 _amount) public onlyRegisteredUser(msg.sender) {\r\n        require(users[msg.sender].tokens >= _amount, \"Insufficient tokens\");\r\n        users[msg.sender].tokens -= _amount;\r\n        totalTransactions++;\r\n        totalTokensTraded += _amount;\r\n\r\n        emit EnergyTraded(msg.sender, _amount, \"Buy\");\r\n    }\r\n\r\n    function sellEnergy(uint256 _amount) public onlyRegisteredUser(msg.sender) {\r\n        users[msg.sender].tokens += _amount;\r\n        totalTransactions++;\r\n        totalTokensTraded += _amount;\r\n\r\n        emit EnergyTraded(msg.sender, _amount, \"Sell\");\r\n    }\r\n\r\n    function reportToMainBlockchain() public {\r\n        IMainBlockchain(mainBlockchain).receiveReport(\r\n            address(this),\r\n            totalTransactions,\r\n            totalTokensTraded\r\n        );\r\n    }\r\n}\r\n",
  "sourcePath": "C:\\Users\\USER\\Desktop\\blockchain\\Blockchain\\contracts\\SubBlockchain.sol",
  "compiler": {
    "name": "solc",
    "version": "0.8.21+commit.d9974bed.Emscripten.clang"
  },
  "schemaVersion": "3.4.16",
  "updatedAt": "2024-12-15T13:57:20.513Z",
  "networkType": "ethereum",
  "devdoc": {
    "kind": "dev",
    "methods": {},
    "version": 1
  },
  "userdoc": {
    "kind": "user",
    "methods": {},
    "version": 1
  }
}